{
  "contractName": "TaskManager",
  "abi": [
    {
      "constant": true,
      "inputs": [
        {
          "name": "",
          "type": "uint256"
        }
      ],
      "name": "tasks",
      "outputs": [
        {
          "name": "id",
          "type": "uint256"
        },
        {
          "name": "content",
          "type": "string"
        },
        {
          "name": "completed",
          "type": "bool"
        },
        {
          "name": "exists",
          "type": "bool"
        }
      ],
      "payable": false,
      "stateMutability": "view",
      "type": "function",
      "signature": "0x8d977672"
    },
    {
      "constant": true,
      "inputs": [],
      "name": "taskCount",
      "outputs": [
        {
          "name": "",
          "type": "uint256"
        }
      ],
      "payable": false,
      "stateMutability": "view",
      "type": "function",
      "signature": "0xb6cb58a5"
    },
    {
      "inputs": [],
      "payable": false,
      "stateMutability": "nonpayable",
      "type": "constructor",
      "signature": "constructor"
    },
    {
      "anonymous": false,
      "inputs": [
        {
          "indexed": false,
          "name": "id",
          "type": "uint256"
        },
        {
          "indexed": false,
          "name": "content",
          "type": "string"
        },
        {
          "indexed": false,
          "name": "completed",
          "type": "bool"
        }
      ],
      "name": "TaskCreated",
      "type": "event",
      "signature": "0x05d0fb833127fc08168556d0e7ca9554fc3f6bc843b3b7d2bf1c35aea6bab660"
    },
    {
      "anonymous": false,
      "inputs": [
        {
          "indexed": false,
          "name": "id",
          "type": "uint256"
        },
        {
          "indexed": false,
          "name": "completed",
          "type": "bool"
        }
      ],
      "name": "TaskCompleted",
      "type": "event",
      "signature": "0xe21fa966ca5cd02748c0752352d18c48165e61cb55b4c29cccf924b5a95fcff1"
    },
    {
      "anonymous": false,
      "inputs": [
        {
          "indexed": false,
          "name": "id",
          "type": "uint256"
        }
      ],
      "name": "TaskDeleted",
      "type": "event",
      "signature": "0xd078b251d950cc55c44340be1db732337ef4939a76e1367ee271ad2cb19c46af"
    },
    {
      "anonymous": false,
      "inputs": [],
      "name": "TasksCleared",
      "type": "event",
      "signature": "0x530beb124957fdae497168fef2bad9a26c6d33c4f9de8f67f898d99853320925"
    },
    {
      "constant": false,
      "inputs": [
        {
          "name": "_content",
          "type": "string"
        }
      ],
      "name": "createTask",
      "outputs": [],
      "payable": false,
      "stateMutability": "nonpayable",
      "type": "function",
      "signature": "0x111002aa"
    },
    {
      "constant": false,
      "inputs": [
        {
          "name": "_id",
          "type": "uint256"
        }
      ],
      "name": "toggleCompleted",
      "outputs": [],
      "payable": false,
      "stateMutability": "nonpayable",
      "type": "function",
      "signature": "0x455f5024"
    },
    {
      "constant": false,
      "inputs": [
        {
          "name": "_id",
          "type": "uint256"
        }
      ],
      "name": "deleteTask",
      "outputs": [],
      "payable": false,
      "stateMutability": "nonpayable",
      "type": "function",
      "signature": "0x560f3192"
    },
    {
      "constant": false,
      "inputs": [],
      "name": "clearTasks",
      "outputs": [],
      "payable": false,
      "stateMutability": "nonpayable",
      "type": "function",
      "signature": "0xdb591664"
    }
  ],
  "bytecode": "0x60806040526000805534801561001457600080fd5b5060408051808201909152601481527f5468697320697320612064656d6f207461736b2e000000000000000000000000602082015261005b90640100000000610060810204565b610236565b6000805460019081018083556040805160808101825282815260208082018781528284018790526060830186905293865284815291909420845181559151805192936100b49390850192919091019061019b565b506040828101516002909201805460609485015115156101000261ff001994151560ff19909216919091179390931692909217909155600080548251818152928301829052602080840185815286519585019590955285517f05d0fb833127fc08168556d0e7ca9554fc3f6bc843b3b7d2bf1c35aea6bab660959294879493909290916080840191860190808383885b8381101561015c578181015183820152602001610144565b50505050905090810190601f1680156101895780820380516001836020036101000a031916815260200191505b5094505050505060405180910390a150565b828054600181600116156101000203166002900490600052602060002090601f016020900481019282601f106101dc57805160ff1916838001178555610209565b82800160010185558215610209579182015b828111156102095782518255916020019190600101906101ee565b50610215929150610219565b5090565b61023391905b80821115610215576000815560010161021f565b90565b6107ef806102456000396000f3fe6080604052600436106100775763ffffffff7c0100000000000000000000000000000000000000000000000000000000600035041663111002aa811461007c578063455f502414610131578063560f31921461015b5780638d97767214610185578063b6cb58a514610241578063db59166414610268575b600080fd5b34801561008857600080fd5b5061012f6004803603602081101561009f57600080fd5b8101906020810181356401000000008111156100ba57600080fd5b8201836020820111156100cc57600080fd5b803590602001918460018302840111640100000000831117156100ee57600080fd5b91908080601f01602080910402602001604051908101604052809392919081815260200183838082843760009201919091525092955061027d945050505050565b005b34801561013d57600080fd5b5061012f6004803603602081101561015457600080fd5b50356103b8565b34801561016757600080fd5b5061012f6004803603602081101561017e57600080fd5b50356104a7565b34801561019157600080fd5b506101af600480360360208110156101a857600080fd5b5035610592565b6040805185815283151591810191909152811515606082015260806020808301828152865192840192909252855160a084019187019080838360005b838110156102035781810151838201526020016101eb565b50505050905090810190601f1680156102305780820380516001836020036101000a031916815260200191505b509550505050505060405180910390f35b34801561024d57600080fd5b5061025661064a565b60408051918252519081900360200190f35b34801561027457600080fd5b5061012f610650565b6000805460019081018083556040805160808101825282815260208082018781528284018790526060830186905293865284815291909420845181559151805192936102d1939085019291909101906106e1565b506040828101516002909201805460609485015115156101000261ff001994151560ff19909216919091179390931692909217909155600080548251818152928301829052602080840185815286519585019590955285517f05d0fb833127fc08168556d0e7ca9554fc3f6bc843b3b7d2bf1c35aea6bab660959294879493909290916080840191860190808383885b83811015610379578181015183820152602001610361565b50505050905090810190601f1680156103a65780820380516001836020036101000a031916815260200191505b5094505050505060405180910390a150565b600081815260016020526040902060020154610100900460ff16151561043f57604080517f08c379a000000000000000000000000000000000000000000000000000000000815260206004820152601060248201527f5461736b206d7573742065786973742e00000000000000000000000000000000604482015290519081900360640190fd5b60008181526001602090815260409182902060028101805460ff19811660ff91821615179182905584518681529116151592810192909252825190927fe21fa966ca5cd02748c0752352d18c48165e61cb55b4c29cccf924b5a95fcff1928290030190a15050565b600081815260016020526040902060020154610100900460ff16151561052e57604080517f08c379a000000000000000000000000000000000000000000000000000000000815260206004820152601060248201527f5461736b206d7573742065786973742e00000000000000000000000000000000604482015290519081900360640190fd5b60008181526001602081905260408220828155919061054f9083018261075f565b50600201805461ffff191690556040805182815290517fd078b251d950cc55c44340be1db732337ef4939a76e1367ee271ad2cb19c46af9181900360200190a150565b600160208181526000928352604092839020805481840180548651600296821615610100026000190190911695909504601f8101859004850286018501909652858552909491939290919083018282801561062e5780601f106106035761010080835404028352916020019161062e565b820191906000526020600020905b81548152906001019060200180831161061157829003601f168201915b5050506002909301549192505060ff8082169161010090041684565b60005481565b60015b60005481116106b257600081815260016020526040902060020154610100900460ff16156106aa5760008181526001602081905260408220828155919061069c9083018261075f565b50600201805461ffff191690555b600101610653565b5060008080556040517f530beb124957fdae497168fef2bad9a26c6d33c4f9de8f67f898d998533209259190a1565b828054600181600116156101000203166002900490600052602060002090601f016020900481019282601f1061072257805160ff191683800117855561074f565b8280016001018555821561074f579182015b8281111561074f578251825591602001919060010190610734565b5061075b9291506107a6565b5090565b50805460018160011615610100020316600290046000825580601f1061078557506107a3565b601f0160209004906000526020600020908101906107a391906107a6565b50565b6107c091905b8082111561075b57600081556001016107ac565b9056fea165627a7a723058203fbb96822edf1bc2d041653084d91658841a7be2dad6e50a96deb7a0376054720029",
  "source": "pragma solidity ^0.5.0;\n\ncontract TaskManager {\n    uint public taskCount = 0;\n\n    struct Task {\n        uint id;\n        string content;\n        bool completed;\n        bool exists; // This flag will help to manage the existence of tasks\n    }\n\n    mapping(uint => Task) public tasks;\n\n    event TaskCreated(\n        uint id,\n        string content,\n        bool completed\n    );\n\n    event TaskCompleted(\n        uint id,\n        bool completed\n    );\n\n    event TaskDeleted(\n        uint id\n    );\n\n    event TasksCleared();\n\n    constructor() public {\n        createTask(\"This is a demo task.\");\n    }\n\n    function createTask(string memory _content) public {\n        taskCount++;\n        tasks[taskCount] = Task(taskCount, _content, false, true);\n        emit TaskCreated(taskCount, _content, false);\n    }\n\n    function toggleCompleted(uint _id) public {\n        require(tasks[_id].exists, \"Task must exist.\");\n        Task storage _task = tasks[_id];\n        _task.completed = !_task.completed;\n        emit TaskCompleted(_id, _task.completed);\n    }\n\n    function deleteTask(uint _id) public {\n        require(tasks[_id].exists, \"Task must exist.\");\n        delete tasks[_id]; // Deletes the task\n        emit TaskDeleted(_id);\n    }\n\n       function clearTasks() public {\n        for (uint i = 1; i <= taskCount; i++) {\n            if (tasks[i].exists) {\n                delete tasks[i];\n            }\n        }\n        taskCount = 0; // Optionally reset the task count\n        emit TasksCleared();\n    }\n}",
  "sourcePath": "C:/Users/SANTOS/OneDrive - University of East London/DESKTOP/FInal Year Coding/Dapp final/eth-todo-list-master/contracts/TaskManager.sol",
  "compiler": {
    "name": "solc",
    "version": "0.5.0+commit.1d4f565a.Emscripten.clang"
  },
  "schemaVersion": "3.0.1",
  "updatedAt": "2024-05-09T13:35:19.281Z",
  "devdoc": {
    "methods": {}
  },
  "userdoc": {
    "methods": {}
  }
}